{
  "_format": "hh-sol-artifact-1",
  "contractName": "SustainableProductNFT",
  "sourceName": "contracts/Sustainable.sol",
  "abi": [
    {
      "inputs": [],
      "stateMutability": "nonpayable",
      "type": "constructor"
    },
    {
      "inputs": [
        {
          "internalType": "address",
          "name": "sender",
          "type": "address"
        },
        {
          "internalType": "uint256",
          "name": "tokenId",
          "type": "uint256"
        },
        {
          "internalType": "address",
          "name": "owner",
          "type": "address"
        }
      ],
      "name": "ERC721IncorrectOwner",
      "type": "error"
    },
    {
      "inputs": [
        {
          "internalType": "address",
          "name": "operator",
          "type": "address"
        },
        {
          "internalType": "uint256",
          "name": "tokenId",
          "type": "uint256"
        }
      ],
      "name": "ERC721InsufficientApproval",
      "type": "error"
    },
    {
      "inputs": [
        {
          "internalType": "address",
          "name": "approver",
          "type": "address"
        }
      ],
      "name": "ERC721InvalidApprover",
      "type": "error"
    },
    {
      "inputs": [
        {
          "internalType": "address",
          "name": "operator",
          "type": "address"
        }
      ],
      "name": "ERC721InvalidOperator",
      "type": "error"
    },
    {
      "inputs": [
        {
          "internalType": "address",
          "name": "owner",
          "type": "address"
        }
      ],
      "name": "ERC721InvalidOwner",
      "type": "error"
    },
    {
      "inputs": [
        {
          "internalType": "address",
          "name": "receiver",
          "type": "address"
        }
      ],
      "name": "ERC721InvalidReceiver",
      "type": "error"
    },
    {
      "inputs": [
        {
          "internalType": "address",
          "name": "sender",
          "type": "address"
        }
      ],
      "name": "ERC721InvalidSender",
      "type": "error"
    },
    {
      "inputs": [
        {
          "internalType": "uint256",
          "name": "tokenId",
          "type": "uint256"
        }
      ],
      "name": "ERC721NonexistentToken",
      "type": "error"
    },
    {
      "inputs": [
        {
          "internalType": "address",
          "name": "owner",
          "type": "address"
        }
      ],
      "name": "OwnableInvalidOwner",
      "type": "error"
    },
    {
      "inputs": [
        {
          "internalType": "address",
          "name": "account",
          "type": "address"
        }
      ],
      "name": "OwnableUnauthorizedAccount",
      "type": "error"
    },
    {
      "anonymous": false,
      "inputs": [
        {
          "indexed": true,
          "internalType": "address",
          "name": "owner",
          "type": "address"
        },
        {
          "indexed": true,
          "internalType": "address",
          "name": "approved",
          "type": "address"
        },
        {
          "indexed": true,
          "internalType": "uint256",
          "name": "tokenId",
          "type": "uint256"
        }
      ],
      "name": "Approval",
      "type": "event"
    },
    {
      "anonymous": false,
      "inputs": [
        {
          "indexed": true,
          "internalType": "address",
          "name": "owner",
          "type": "address"
        },
        {
          "indexed": true,
          "internalType": "address",
          "name": "operator",
          "type": "address"
        },
        {
          "indexed": false,
          "internalType": "bool",
          "name": "approved",
          "type": "bool"
        }
      ],
      "name": "ApprovalForAll",
      "type": "event"
    },
    {
      "anonymous": false,
      "inputs": [
        {
          "indexed": true,
          "internalType": "address",
          "name": "previousOwner",
          "type": "address"
        },
        {
          "indexed": true,
          "internalType": "address",
          "name": "newOwner",
          "type": "address"
        }
      ],
      "name": "OwnershipTransferred",
      "type": "event"
    },
    {
      "anonymous": false,
      "inputs": [
        {
          "indexed": true,
          "internalType": "address",
          "name": "buyer",
          "type": "address"
        },
        {
          "indexed": false,
          "internalType": "uint256",
          "name": "tokenId",
          "type": "uint256"
        },
        {
          "indexed": false,
          "internalType": "string",
          "name": "ipfsMetadataHash",
          "type": "string"
        }
      ],
      "name": "ProductMinted",
      "type": "event"
    },
    {
      "anonymous": false,
      "inputs": [
        {
          "indexed": true,
          "internalType": "address",
          "name": "submitter",
          "type": "address"
        },
        {
          "indexed": false,
          "internalType": "uint256",
          "name": "productId",
          "type": "uint256"
        }
      ],
      "name": "ProductSubmitted",
      "type": "event"
    },
    {
      "anonymous": false,
      "inputs": [
        {
          "indexed": true,
          "internalType": "address",
          "name": "from",
          "type": "address"
        },
        {
          "indexed": true,
          "internalType": "address",
          "name": "to",
          "type": "address"
        },
        {
          "indexed": true,
          "internalType": "uint256",
          "name": "tokenId",
          "type": "uint256"
        }
      ],
      "name": "Transfer",
      "type": "event"
    },
    {
      "anonymous": false,
      "inputs": [
        {
          "indexed": true,
          "internalType": "address",
          "name": "userAddress",
          "type": "address"
        }
      ],
      "name": "UserLoggedIn",
      "type": "event"
    },
    {
      "inputs": [
        {
          "internalType": "address",
          "name": "to",
          "type": "address"
        },
        {
          "internalType": "uint256",
          "name": "tokenId",
          "type": "uint256"
        }
      ],
      "name": "approve",
      "outputs": [],
      "stateMutability": "nonpayable",
      "type": "function"
    },
    {
      "inputs": [
        {
          "internalType": "address",
          "name": "owner",
          "type": "address"
        }
      ],
      "name": "balanceOf",
      "outputs": [
        {
          "internalType": "uint256",
          "name": "",
          "type": "uint256"
        }
      ],
      "stateMutability": "view",
      "type": "function"
    },
    {
      "inputs": [
        {
          "internalType": "uint256",
          "name": "tokenId",
          "type": "uint256"
        }
      ],
      "name": "getApproved",
      "outputs": [
        {
          "internalType": "address",
          "name": "",
          "type": "address"
        }
      ],
      "stateMutability": "view",
      "type": "function"
    },
    {
      "inputs": [],
      "name": "getProductCount",
      "outputs": [
        {
          "internalType": "uint256",
          "name": "",
          "type": "uint256"
        }
      ],
      "stateMutability": "view",
      "type": "function"
    },
    {
      "inputs": [
        {
          "internalType": "uint256",
          "name": "productId",
          "type": "uint256"
        }
      ],
      "name": "getProductDetails",
      "outputs": [
        {
          "internalType": "string",
          "name": "productName",
          "type": "string"
        },
        {
          "internalType": "string",
          "name": "description",
          "type": "string"
        },
        {
          "internalType": "string",
          "name": "ipfsMetadataHash",
          "type": "string"
        },
        {
          "internalType": "string",
          "name": "sustainabilityClaims",
          "type": "string"
        },
        {
          "internalType": "uint256",
          "name": "nftTokenId",
          "type": "uint256"
        },
        {
          "internalType": "bool",
          "name": "isMinted",
          "type": "bool"
        }
      ],
      "stateMutability": "view",
      "type": "function"
    },
    {
      "inputs": [
        {
          "internalType": "address",
          "name": "owner",
          "type": "address"
        },
        {
          "internalType": "address",
          "name": "operator",
          "type": "address"
        }
      ],
      "name": "isApprovedForAll",
      "outputs": [
        {
          "internalType": "bool",
          "name": "",
          "type": "bool"
        }
      ],
      "stateMutability": "view",
      "type": "function"
    },
    {
      "inputs": [],
      "name": "login",
      "outputs": [],
      "stateMutability": "nonpayable",
      "type": "function"
    },
    {
      "inputs": [],
      "name": "name",
      "outputs": [
        {
          "internalType": "string",
          "name": "",
          "type": "string"
        }
      ],
      "stateMutability": "view",
      "type": "function"
    },
    {
      "inputs": [],
      "name": "nextTokenId",
      "outputs": [
        {
          "internalType": "uint256",
          "name": "",
          "type": "uint256"
        }
      ],
      "stateMutability": "view",
      "type": "function"
    },
    {
      "inputs": [],
      "name": "nftPrice",
      "outputs": [
        {
          "internalType": "uint256",
          "name": "",
          "type": "uint256"
        }
      ],
      "stateMutability": "view",
      "type": "function"
    },
    {
      "inputs": [],
      "name": "owner",
      "outputs": [
        {
          "internalType": "address",
          "name": "",
          "type": "address"
        }
      ],
      "stateMutability": "view",
      "type": "function"
    },
    {
      "inputs": [
        {
          "internalType": "uint256",
          "name": "tokenId",
          "type": "uint256"
        }
      ],
      "name": "ownerOf",
      "outputs": [
        {
          "internalType": "address",
          "name": "",
          "type": "address"
        }
      ],
      "stateMutability": "view",
      "type": "function"
    },
    {
      "inputs": [],
      "name": "productCount",
      "outputs": [
        {
          "internalType": "uint256",
          "name": "",
          "type": "uint256"
        }
      ],
      "stateMutability": "view",
      "type": "function"
    },
    {
      "inputs": [
        {
          "internalType": "uint256",
          "name": "",
          "type": "uint256"
        }
      ],
      "name": "products",
      "outputs": [
        {
          "internalType": "string",
          "name": "productName",
          "type": "string"
        },
        {
          "internalType": "string",
          "name": "description",
          "type": "string"
        },
        {
          "internalType": "string",
          "name": "ipfsMetadataHash",
          "type": "string"
        },
        {
          "internalType": "string",
          "name": "sustainabilityClaims",
          "type": "string"
        },
        {
          "internalType": "uint256",
          "name": "nftTokenId",
          "type": "uint256"
        },
        {
          "internalType": "bool",
          "name": "isMinted",
          "type": "bool"
        }
      ],
      "stateMutability": "view",
      "type": "function"
    },
    {
      "inputs": [],
      "name": "renounceOwnership",
      "outputs": [],
      "stateMutability": "nonpayable",
      "type": "function"
    },
    {
      "inputs": [
        {
          "internalType": "address",
          "name": "from",
          "type": "address"
        },
        {
          "internalType": "address",
          "name": "to",
          "type": "address"
        },
        {
          "internalType": "uint256",
          "name": "tokenId",
          "type": "uint256"
        }
      ],
      "name": "safeTransferFrom",
      "outputs": [],
      "stateMutability": "nonpayable",
      "type": "function"
    },
    {
      "inputs": [
        {
          "internalType": "address",
          "name": "from",
          "type": "address"
        },
        {
          "internalType": "address",
          "name": "to",
          "type": "address"
        },
        {
          "internalType": "uint256",
          "name": "tokenId",
          "type": "uint256"
        },
        {
          "internalType": "bytes",
          "name": "data",
          "type": "bytes"
        }
      ],
      "name": "safeTransferFrom",
      "outputs": [],
      "stateMutability": "nonpayable",
      "type": "function"
    },
    {
      "inputs": [
        {
          "internalType": "address",
          "name": "operator",
          "type": "address"
        },
        {
          "internalType": "bool",
          "name": "approved",
          "type": "bool"
        }
      ],
      "name": "setApprovalForAll",
      "outputs": [],
      "stateMutability": "nonpayable",
      "type": "function"
    },
    {
      "inputs": [
        {
          "internalType": "uint256",
          "name": "productId",
          "type": "uint256"
        },
        {
          "internalType": "string",
          "name": "_productName",
          "type": "string"
        },
        {
          "internalType": "string",
          "name": "_description",
          "type": "string"
        },
        {
          "internalType": "string",
          "name": "_ipfsMetadataHash",
          "type": "string"
        },
        {
          "internalType": "string",
          "name": "_sustainabilityClaims",
          "type": "string"
        }
      ],
      "name": "submitAndMintProduct",
      "outputs": [],
      "stateMutability": "payable",
      "type": "function"
    },
    {
      "inputs": [
        {
          "internalType": "bytes4",
          "name": "interfaceId",
          "type": "bytes4"
        }
      ],
      "name": "supportsInterface",
      "outputs": [
        {
          "internalType": "bool",
          "name": "",
          "type": "bool"
        }
      ],
      "stateMutability": "view",
      "type": "function"
    },
    {
      "inputs": [],
      "name": "symbol",
      "outputs": [
        {
          "internalType": "string",
          "name": "",
          "type": "string"
        }
      ],
      "stateMutability": "view",
      "type": "function"
    },
    {
      "inputs": [
        {
          "internalType": "uint256",
          "name": "tokenId",
          "type": "uint256"
        }
      ],
      "name": "tokenURI",
      "outputs": [
        {
          "internalType": "string",
          "name": "",
          "type": "string"
        }
      ],
      "stateMutability": "view",
      "type": "function"
    },
    {
      "inputs": [
        {
          "internalType": "address",
          "name": "from",
          "type": "address"
        },
        {
          "internalType": "address",
          "name": "to",
          "type": "address"
        },
        {
          "internalType": "uint256",
          "name": "tokenId",
          "type": "uint256"
        }
      ],
      "name": "transferFrom",
      "outputs": [],
      "stateMutability": "nonpayable",
      "type": "function"
    },
    {
      "inputs": [
        {
          "internalType": "address",
          "name": "newOwner",
          "type": "address"
        }
      ],
      "name": "transferOwnership",
      "outputs": [],
      "stateMutability": "nonpayable",
      "type": "function"
    },
    {
      "inputs": [
        {
          "internalType": "address",
          "name": "",
          "type": "address"
        }
      ],
      "name": "users",
      "outputs": [
        {
          "internalType": "address",
          "name": "userAddress",
          "type": "address"
        },
        {
          "internalType": "bool",
          "name": "isRegistered",
          "type": "bool"
        }
      ],
      "stateMutability": "view",
      "type": "function"
    },
    {
      "inputs": [],
      "name": "withdraw",
      "outputs": [],
      "stateMutability": "nonpayable",
      "type": "function"
    }
  ],
  "bytecode": "0x6080604052662386f26fc10000600b553480156200001c57600080fd5b50336040518060400160405280601581526020017f5375737461696e61626c6550726f647563744e465400000000000000000000008152506040518060400160405280600581526020017f53504e465400000000000000000000000000000000000000000000000000000081525081600090816200009b91906200048d565b508060019081620000ad91906200048d565b505050600073ffffffffffffffffffffffffffffffffffffffff168173ffffffffffffffffffffffffffffffffffffffff1603620001255760006040517f1e4fbdf70000000000000000000000000000000000000000000000000000000081526004016200011c9190620005b9565b60405180910390fd5b62000136816200014d60201b60201c565b5060006009819055506000600a81905550620005d6565b6000600660009054906101000a900473ffffffffffffffffffffffffffffffffffffffff16905081600660006101000a81548173ffffffffffffffffffffffffffffffffffffffff021916908373ffffffffffffffffffffffffffffffffffffffff1602179055508173ffffffffffffffffffffffffffffffffffffffff168173ffffffffffffffffffffffffffffffffffffffff167f8be0079c531659141344cd1fd0a4f28419497f9722a3daafe3b4186f6b6457e060405160405180910390a35050565b600081519050919050565b7f4e487b7100000000000000000000000000000000000000000000000000000000600052604160045260246000fd5b7f4e487b7100000000000000000000000000000000000000000000000000000000600052602260045260246000fd5b600060028204905060018216806200029557607f821691505b602082108103620002ab57620002aa6200024d565b5b50919050565b60008190508160005260206000209050919050565b60006020601f8301049050919050565b600082821b905092915050565b600060088302620003157fffffffffffffffffffffffffffffffffffffffffffffffffffffffffffffffff82620002d6565b620003218683620002d6565b95508019841693508086168417925050509392505050565b6000819050919050565b6000819050919050565b60006200036e62000368620003628462000339565b62000343565b62000339565b9050919050565b6000819050919050565b6200038a836200034d565b620003a2620003998262000375565b848454620002e3565b825550505050565b600090565b620003b9620003aa565b620003c68184846200037f565b505050565b5b81811015620003ee57620003e2600082620003af565b600181019050620003cc565b5050565b601f8211156200043d576200040781620002b1565b6200041284620002c6565b8101602085101562000422578190505b6200043a6200043185620002c6565b830182620003cb565b50505b505050565b600082821c905092915050565b6000620004626000198460080262000442565b1980831691505092915050565b60006200047d83836200044f565b9150826002028217905092915050565b620004988262000213565b67ffffffffffffffff811115620004b457620004b36200021e565b5b620004c082546200027c565b620004cd828285620003f2565b600060209050601f831160018114620005055760008415620004f0578287015190505b620004fc85826200046f565b8655506200056c565b601f1984166200051586620002b1565b60005b828110156200053f5784890151825560018201915060208501945060208101905062000518565b868310156200055f57848901516200055b601f8916826200044f565b8355505b6001600288020188555050505b505050505050565b600073ffffffffffffffffffffffffffffffffffffffff82169050919050565b6000620005a18262000574565b9050919050565b620005b38162000594565b82525050565b6000602082019050620005d06000830184620005a8565b92915050565b61332c80620005e66000396000f3fe6080604052600436106101815760003560e01c8063715018a6116100d1578063a87430ba1161008a578063c87b56dd11610064578063c87b56dd1461056c578063e0f6ef87146105a9578063e985e9c5146105d4578063f2fde38b1461061157610181565b8063a87430ba146104ee578063b34e97e81461052c578063b88d4fde1461054357610181565b8063715018a6146103eb57806375794a3c146104025780637acc0b201461042d5780638da5cb5b1461046f57806395d89b411461049a578063a22cb465146104c557610181565b8063318bf6af1161013e5780634a348da9116101185780634a348da9146103045780636352211e1461032f5780636813b53b1461036c57806370a08231146103ae57610181565b8063318bf6af146102a85780633ccfd60b146102c457806342842e0e146102db57610181565b806301ffc9a71461018657806306fdde03146101c3578063081812fc146101ee578063095ea7b31461022b5780630d39fc811461025457806323b872dd1461027f575b600080fd5b34801561019257600080fd5b506101ad60048036038101906101a89190612390565b61063a565b6040516101ba91906123d8565b60405180910390f35b3480156101cf57600080fd5b506101d861071c565b6040516101e59190612483565b60405180910390f35b3480156101fa57600080fd5b50610215600480360381019061021091906124db565b6107ae565b6040516102229190612549565b60405180910390f35b34801561023757600080fd5b50610252600480360381019061024d9190612590565b6107ca565b005b34801561026057600080fd5b506102696107e0565b60405161027691906125df565b60405180910390f35b34801561028b57600080fd5b506102a660048036038101906102a191906125fa565b6107e6565b005b6102c260048036038101906102bd9190612782565b6108e8565b005b3480156102d057600080fd5b506102d9610bcf565b005b3480156102e757600080fd5b5061030260048036038101906102fd91906125fa565b610c27565b005b34801561031057600080fd5b50610319610c47565b60405161032691906125df565b60405180910390f35b34801561033b57600080fd5b50610356600480360381019061035191906124db565b610c51565b6040516103639190612549565b60405180910390f35b34801561037857600080fd5b50610393600480360381019061038e91906124db565b610c63565b6040516103a59695949392919061286d565b60405180910390f35b3480156103ba57600080fd5b506103d560048036038101906103d091906128ea565b610ef0565b6040516103e291906125df565b60405180910390f35b3480156103f757600080fd5b50610400610faa565b005b34801561040e57600080fd5b50610417610fbe565b60405161042491906125df565b60405180910390f35b34801561043957600080fd5b50610454600480360381019061044f91906124db565b610fc4565b6040516104669695949392919061286d565b60405180910390f35b34801561047b57600080fd5b5061048461122d565b6040516104919190612549565b60405180910390f35b3480156104a657600080fd5b506104af611257565b6040516104bc9190612483565b60405180910390f35b3480156104d157600080fd5b506104ec60048036038101906104e79190612943565b6112e9565b005b3480156104fa57600080fd5b50610515600480360381019061051091906128ea565b6112ff565b604051610523929190612983565b60405180910390f35b34801561053857600080fd5b50610541611350565b005b34801561054f57600080fd5b5061056a60048036038101906105659190612a4d565b6114fc565b005b34801561057857600080fd5b50610593600480360381019061058e91906124db565b611519565b6040516105a09190612483565b60405180910390f35b3480156105b557600080fd5b506105be6115ae565b6040516105cb91906125df565b60405180910390f35b3480156105e057600080fd5b506105fb60048036038101906105f69190612ad0565b6115b4565b60405161060891906123d8565b60405180910390f35b34801561061d57600080fd5b50610638600480360381019061063391906128ea565b611648565b005b60007f80ac58cd000000000000000000000000000000000000000000000000000000007bffffffffffffffffffffffffffffffffffffffffffffffffffffffff1916827bffffffffffffffffffffffffffffffffffffffffffffffffffffffff1916148061070557507f5b5e139f000000000000000000000000000000000000000000000000000000007bffffffffffffffffffffffffffffffffffffffffffffffffffffffff1916827bffffffffffffffffffffffffffffffffffffffffffffffffffffffff1916145b806107155750610714826116ce565b5b9050919050565b60606000805461072b90612b3f565b80601f016020809104026020016040519081016040528092919081815260200182805461075790612b3f565b80156107a45780601f10610779576101008083540402835291602001916107a4565b820191906000526020600020905b81548152906001019060200180831161078757829003601f168201915b5050505050905090565b60006107b982611738565b506107c3826117c0565b9050919050565b6107dc82826107d76117fd565b611805565b5050565b600b5481565b600073ffffffffffffffffffffffffffffffffffffffff168273ffffffffffffffffffffffffffffffffffffffff16036108585760006040517f64a0ae9200000000000000000000000000000000000000000000000000000000815260040161084f9190612549565b60405180910390fd5b600061086c83836108676117fd565b611817565b90508373ffffffffffffffffffffffffffffffffffffffff168173ffffffffffffffffffffffffffffffffffffffff16146108e2578382826040517f64283d7b0000000000000000000000000000000000000000000000000000000081526004016108d993929190612b70565b60405180910390fd5b50505050565b600860003373ffffffffffffffffffffffffffffffffffffffff1673ffffffffffffffffffffffffffffffffffffffff16815260200190815260200160002060000160149054906101000a900460ff16610977576040517f08c379a000000000000000000000000000000000000000000000000000000000815260040161096e90612c19565b60405180910390fd5b846007600082815260200190815260200160002060050160009054906101000a900460ff16156109dc576040517f08c379a00000000000000000000000000000000000000000000000000000000081526004016109d390612c85565b60405180910390fd5b600b54341015610a21576040517f08c379a0000000000000000000000000000000000000000000000000000000008152600401610a1890612d17565b60405180910390fd5b6040518060c00160405280868152602001858152602001848152602001838152602001600954815260200160011515815250600760008881526020019081526020016000206000820151816000019081610a7b9190612ee3565b506020820151816001019081610a919190612ee3565b506040820151816002019081610aa79190612ee3565b506060820151816003019081610abd9190612ee3565b506080820151816004015560a08201518160050160006101000a81548160ff021916908315150217905550905050610af733600954611a31565b3373ffffffffffffffffffffffffffffffffffffffff167fe255424a8c419f09af8bae5026afadabf88873eb00ed00bd41360f6cd34e67f960095485604051610b41929190612fb5565b60405180910390a260096000815480929190610b5c90613014565b9190505550600a6000815480929190610b7490613014565b91905055503373ffffffffffffffffffffffffffffffffffffffff167f8244fb67bceca0edd7e3f02c55c2a216f89fbfb575c0deb2f5657b453502606a87604051610bbf91906125df565b60405180910390a2505050505050565b610bd7611b2a565b610bdf61122d565b73ffffffffffffffffffffffffffffffffffffffff166108fc479081150290604051600060405180830381858888f19350505050158015610c24573d6000803e3d6000fd5b50565b610c42838383604051806020016040528060008152506114fc565b505050565b6000600a54905090565b6000610c5c82611738565b9050919050565b60608060608060008060006007600089815260200190815260200160002090508060000181600101826002018360030184600401548560050160009054906101000a900460ff16858054610cb690612b3f565b80601f0160208091040260200160405190810160405280929190818152602001828054610ce290612b3f565b8015610d2f5780601f10610d0457610100808354040283529160200191610d2f565b820191906000526020600020905b815481529060010190602001808311610d1257829003601f168201915b50505050509550848054610d4290612b3f565b80601f0160208091040260200160405190810160405280929190818152602001828054610d6e90612b3f565b8015610dbb5780601f10610d9057610100808354040283529160200191610dbb565b820191906000526020600020905b815481529060010190602001808311610d9e57829003601f168201915b50505050509450838054610dce90612b3f565b80601f0160208091040260200160405190810160405280929190818152602001828054610dfa90612b3f565b8015610e475780601f10610e1c57610100808354040283529160200191610e47565b820191906000526020600020905b815481529060010190602001808311610e2a57829003601f168201915b50505050509350828054610e5a90612b3f565b80601f0160208091040260200160405190810160405280929190818152602001828054610e8690612b3f565b8015610ed35780601f10610ea857610100808354040283529160200191610ed3565b820191906000526020600020905b815481529060010190602001808311610eb657829003601f168201915b505050505092509650965096509650965096505091939550919395565b60008073ffffffffffffffffffffffffffffffffffffffff168273ffffffffffffffffffffffffffffffffffffffff1603610f635760006040517f89c62b64000000000000000000000000000000000000000000000000000000008152600401610f5a9190612549565b60405180910390fd5b600360008373ffffffffffffffffffffffffffffffffffffffff1673ffffffffffffffffffffffffffffffffffffffff168152602001908152602001600020549050919050565b610fb2611b2a565b610fbc6000611bb1565b565b60095481565b6007602052806000526040600020600091509050806000018054610fe790612b3f565b80601f016020809104026020016040519081016040528092919081815260200182805461101390612b3f565b80156110605780601f1061103557610100808354040283529160200191611060565b820191906000526020600020905b81548152906001019060200180831161104357829003601f168201915b50505050509080600101805461107590612b3f565b80601f01602080910402602001604051908101604052809291908181526020018280546110a190612b3f565b80156110ee5780601f106110c3576101008083540402835291602001916110ee565b820191906000526020600020905b8154815290600101906020018083116110d157829003601f168201915b50505050509080600201805461110390612b3f565b80601f016020809104026020016040519081016040528092919081815260200182805461112f90612b3f565b801561117c5780601f106111515761010080835404028352916020019161117c565b820191906000526020600020905b81548152906001019060200180831161115f57829003601f168201915b50505050509080600301805461119190612b3f565b80601f01602080910402602001604051908101604052809291908181526020018280546111bd90612b3f565b801561120a5780601f106111df5761010080835404028352916020019161120a565b820191906000526020600020905b8154815290600101906020018083116111ed57829003601f168201915b5050505050908060040154908060050160009054906101000a900460ff16905086565b6000600660009054906101000a900473ffffffffffffffffffffffffffffffffffffffff16905090565b60606001805461126690612b3f565b80601f016020809104026020016040519081016040528092919081815260200182805461129290612b3f565b80156112df5780601f106112b4576101008083540402835291602001916112df565b820191906000526020600020905b8154815290600101906020018083116112c257829003601f168201915b5050505050905090565b6112fb6112f46117fd565b8383611c77565b5050565b60086020528060005260406000206000915090508060000160009054906101000a900473ffffffffffffffffffffffffffffffffffffffff16908060000160149054906101000a900460ff16905082565b600860003373ffffffffffffffffffffffffffffffffffffffff1673ffffffffffffffffffffffffffffffffffffffff16815260200190815260200160002060000160149054906101000a900460ff16156113e0576040517f08c379a00000000000000000000000000000000000000000000000000000000081526004016113d7906130ce565b60405180910390fd5b60405180604001604052803373ffffffffffffffffffffffffffffffffffffffff16815260200160011515815250600860003373ffffffffffffffffffffffffffffffffffffffff1673ffffffffffffffffffffffffffffffffffffffff16815260200190815260200160002060008201518160000160006101000a81548173ffffffffffffffffffffffffffffffffffffffff021916908373ffffffffffffffffffffffffffffffffffffffff16021790555060208201518160000160146101000a81548160ff0219169083151502179055509050503373ffffffffffffffffffffffffffffffffffffffff167f8d15fde878cff665868ed7579eb5081db6508d4249df61dcdd7699a5301d987460405160405180910390a2565b6115078484846107e6565b61151384848484611de6565b50505050565b606060005b6009548110156115955782600760008381526020019081526020016000206004015403611582576007600082815260200190815260200160002060020160405160200161156b91906131c8565b6040516020818303038152906040529150506115a9565b808061158d90613014565b91505061151e565b506040518060200160405280600081525090505b919050565b600a5481565b6000600560008473ffffffffffffffffffffffffffffffffffffffff1673ffffffffffffffffffffffffffffffffffffffff16815260200190815260200160002060008373ffffffffffffffffffffffffffffffffffffffff1673ffffffffffffffffffffffffffffffffffffffff16815260200190815260200160002060009054906101000a900460ff16905092915050565b611650611b2a565b600073ffffffffffffffffffffffffffffffffffffffff168173ffffffffffffffffffffffffffffffffffffffff16036116c25760006040517f1e4fbdf70000000000000000000000000000000000000000000000000000000081526004016116b99190612549565b60405180910390fd5b6116cb81611bb1565b50565b60007f01ffc9a7000000000000000000000000000000000000000000000000000000007bffffffffffffffffffffffffffffffffffffffffffffffffffffffff1916827bffffffffffffffffffffffffffffffffffffffffffffffffffffffff1916149050919050565b60008061174483611f9d565b9050600073ffffffffffffffffffffffffffffffffffffffff168173ffffffffffffffffffffffffffffffffffffffff16036117b757826040517f7e2732890000000000000000000000000000000000000000000000000000000081526004016117ae91906125df565b60405180910390fd5b80915050919050565b60006004600083815260200190815260200160002060009054906101000a900473ffffffffffffffffffffffffffffffffffffffff169050919050565b600033905090565b6118128383836001611fda565b505050565b60008061182384611f9d565b9050600073ffffffffffffffffffffffffffffffffffffffff168373ffffffffffffffffffffffffffffffffffffffff16146118655761186481848661219f565b5b600073ffffffffffffffffffffffffffffffffffffffff168173ffffffffffffffffffffffffffffffffffffffff16146118f6576118a7600085600080611fda565b6001600360008373ffffffffffffffffffffffffffffffffffffffff1673ffffffffffffffffffffffffffffffffffffffff168152602001908152602001600020600082825403925050819055505b600073ffffffffffffffffffffffffffffffffffffffff168573ffffffffffffffffffffffffffffffffffffffff1614611979576001600360008773ffffffffffffffffffffffffffffffffffffffff1673ffffffffffffffffffffffffffffffffffffffff168152602001908152602001600020600082825401925050819055505b846002600086815260200190815260200160002060006101000a81548173ffffffffffffffffffffffffffffffffffffffff021916908373ffffffffffffffffffffffffffffffffffffffff160217905550838573ffffffffffffffffffffffffffffffffffffffff168273ffffffffffffffffffffffffffffffffffffffff167fddf252ad1be2c89b69c2b068fc378daa952ba7f163c4a11628f55a4df523b3ef60405160405180910390a4809150509392505050565b600073ffffffffffffffffffffffffffffffffffffffff168273ffffffffffffffffffffffffffffffffffffffff1603611aa35760006040517f64a0ae92000000000000000000000000000000000000000000000000000000008152600401611a9a9190612549565b60405180910390fd5b6000611ab183836000611817565b9050600073ffffffffffffffffffffffffffffffffffffffff168173ffffffffffffffffffffffffffffffffffffffff1614611b255760006040517f73c6ac6e000000000000000000000000000000000000000000000000000000008152600401611b1c9190612549565b60405180910390fd5b505050565b611b326117fd565b73ffffffffffffffffffffffffffffffffffffffff16611b5061122d565b73ffffffffffffffffffffffffffffffffffffffff1614611baf57611b736117fd565b6040517f118cdaa7000000000000000000000000000000000000000000000000000000008152600401611ba69190612549565b60405180910390fd5b565b6000600660009054906101000a900473ffffffffffffffffffffffffffffffffffffffff16905081600660006101000a81548173ffffffffffffffffffffffffffffffffffffffff021916908373ffffffffffffffffffffffffffffffffffffffff1602179055508173ffffffffffffffffffffffffffffffffffffffff168173ffffffffffffffffffffffffffffffffffffffff167f8be0079c531659141344cd1fd0a4f28419497f9722a3daafe3b4186f6b6457e060405160405180910390a35050565b600073ffffffffffffffffffffffffffffffffffffffff168273ffffffffffffffffffffffffffffffffffffffff1603611ce857816040517f5b08ba18000000000000000000000000000000000000000000000000000000008152600401611cdf9190612549565b60405180910390fd5b80600560008573ffffffffffffffffffffffffffffffffffffffff1673ffffffffffffffffffffffffffffffffffffffff16815260200190815260200160002060008473ffffffffffffffffffffffffffffffffffffffff1673ffffffffffffffffffffffffffffffffffffffff16815260200190815260200160002060006101000a81548160ff0219169083151502179055508173ffffffffffffffffffffffffffffffffffffffff168373ffffffffffffffffffffffffffffffffffffffff167f17307eab39ab6107e8899845ad3d59bd9653f200f220920489ca2b5937696c3183604051611dd991906123d8565b60405180910390a3505050565b60008373ffffffffffffffffffffffffffffffffffffffff163b1115611f97578273ffffffffffffffffffffffffffffffffffffffff1663150b7a02611e2a6117fd565b8685856040518563ffffffff1660e01b8152600401611e4c949392919061323f565b6020604051808303816000875af1925050508015611e8857506040513d601f19601f82011682018060405250810190611e8591906132a0565b60015b611f0c573d8060008114611eb8576040519150601f19603f3d011682016040523d82523d6000602084013e611ebd565b606091505b506000815103611f0457836040517f64a0ae92000000000000000000000000000000000000000000000000000000008152600401611efb9190612549565b60405180910390fd5b805181602001fd5b63150b7a0260e01b7bffffffffffffffffffffffffffffffffffffffffffffffffffffffff1916817bffffffffffffffffffffffffffffffffffffffffffffffffffffffff191614611f9557836040517f64a0ae92000000000000000000000000000000000000000000000000000000008152600401611f8c9190612549565b60405180910390fd5b505b50505050565b60006002600083815260200190815260200160002060009054906101000a900473ffffffffffffffffffffffffffffffffffffffff169050919050565b80806120135750600073ffffffffffffffffffffffffffffffffffffffff168273ffffffffffffffffffffffffffffffffffffffff1614155b1561214757600061202384611738565b9050600073ffffffffffffffffffffffffffffffffffffffff168373ffffffffffffffffffffffffffffffffffffffff161415801561208e57508273ffffffffffffffffffffffffffffffffffffffff168173ffffffffffffffffffffffffffffffffffffffff1614155b80156120a1575061209f81846115b4565b155b156120e357826040517fa9fbf51f0000000000000000000000000000000000000000000000000000000081526004016120da9190612549565b60405180910390fd5b811561214557838573ffffffffffffffffffffffffffffffffffffffff168273ffffffffffffffffffffffffffffffffffffffff167f8c5be1e5ebec7d5bd14f71427d1e84f3dd0314c0f7b2291e5b200ac8c7c3b92560405160405180910390a45b505b836004600085815260200190815260200160002060006101000a81548173ffffffffffffffffffffffffffffffffffffffff021916908373ffffffffffffffffffffffffffffffffffffffff16021790555050505050565b6121aa838383612263565b61225e57600073ffffffffffffffffffffffffffffffffffffffff168373ffffffffffffffffffffffffffffffffffffffff160361221f57806040517f7e27328900000000000000000000000000000000000000000000000000000000815260040161221691906125df565b60405180910390fd5b81816040517f177e802f0000000000000000000000000000000000000000000000000000000081526004016122559291906132cd565b60405180910390fd5b505050565b60008073ffffffffffffffffffffffffffffffffffffffff168373ffffffffffffffffffffffffffffffffffffffff161415801561231b57508273ffffffffffffffffffffffffffffffffffffffff168473ffffffffffffffffffffffffffffffffffffffff1614806122dc57506122db84846115b4565b5b8061231a57508273ffffffffffffffffffffffffffffffffffffffff16612302836117c0565b73ffffffffffffffffffffffffffffffffffffffff16145b5b90509392505050565b6000604051905090565b600080fd5b600080fd5b60007fffffffff0000000000000000000000000000000000000000000000000000000082169050919050565b61236d81612338565b811461237857600080fd5b50565b60008135905061238a81612364565b92915050565b6000602082840312156123a6576123a561232e565b5b60006123b48482850161237b565b91505092915050565b60008115159050919050565b6123d2816123bd565b82525050565b60006020820190506123ed60008301846123c9565b92915050565b600081519050919050565b600082825260208201905092915050565b60005b8381101561242d578082015181840152602081019050612412565b60008484015250505050565b6000601f19601f8301169050919050565b6000612455826123f3565b61245f81856123fe565b935061246f81856020860161240f565b61247881612439565b840191505092915050565b6000602082019050818103600083015261249d818461244a565b905092915050565b6000819050919050565b6124b8816124a5565b81146124c357600080fd5b50565b6000813590506124d5816124af565b92915050565b6000602082840312156124f1576124f061232e565b5b60006124ff848285016124c6565b91505092915050565b600073ffffffffffffffffffffffffffffffffffffffff82169050919050565b600061253382612508565b9050919050565b61254381612528565b82525050565b600060208201905061255e600083018461253a565b92915050565b61256d81612528565b811461257857600080fd5b50565b60008135905061258a81612564565b92915050565b600080604083850312156125a7576125a661232e565b5b60006125b58582860161257b565b92505060206125c6858286016124c6565b9150509250929050565b6125d9816124a5565b82525050565b60006020820190506125f460008301846125d0565b92915050565b6000806000606084860312156126135761261261232e565b5b60006126218682870161257b565b93505060206126328682870161257b565b9250506040612643868287016124c6565b9150509250925092565b600080fd5b600080fd5b7f4e487b7100000000000000000000000000000000000000000000000000000000600052604160045260246000fd5b61268f82612439565b810181811067ffffffffffffffff821117156126ae576126ad612657565b5b80604052505050565b60006126c1612324565b90506126cd8282612686565b919050565b600067ffffffffffffffff8211156126ed576126ec612657565b5b6126f682612439565b9050602081019050919050565b82818337600083830152505050565b6000612725612720846126d2565b6126b7565b90508281526020810184848401111561274157612740612652565b5b61274c848285612703565b509392505050565b600082601f8301126127695761276861264d565b5b8135612779848260208601612712565b91505092915050565b600080600080600060a0868803121561279e5761279d61232e565b5b60006127ac888289016124c6565b955050602086013567ffffffffffffffff8111156127cd576127cc612333565b5b6127d988828901612754565b945050604086013567ffffffffffffffff8111156127fa576127f9612333565b5b61280688828901612754565b935050606086013567ffffffffffffffff81111561282757612826612333565b5b61283388828901612754565b925050608086013567ffffffffffffffff81111561285457612853612333565b5b61286088828901612754565b9150509295509295909350565b600060c0820190508181036000830152612887818961244a565b9050818103602083015261289b818861244a565b905081810360408301526128af818761244a565b905081810360608301526128c3818661244a565b90506128d260808301856125d0565b6128df60a08301846123c9565b979650505050505050565b600060208284031215612900576128ff61232e565b5b600061290e8482850161257b565b91505092915050565b612920816123bd565b811461292b57600080fd5b50565b60008135905061293d81612917565b92915050565b6000806040838503121561295a5761295961232e565b5b60006129688582860161257b565b92505060206129798582860161292e565b9150509250929050565b6000604082019050612998600083018561253a565b6129a560208301846123c9565b9392505050565b600067ffffffffffffffff8211156129c7576129c6612657565b5b6129d082612439565b9050602081019050919050565b60006129f06129eb846129ac565b6126b7565b905082815260208101848484011115612a0c57612a0b612652565b5b612a17848285612703565b509392505050565b600082601f830112612a3457612a3361264d565b5b8135612a448482602086016129dd565b91505092915050565b60008060008060808587031215612a6757612a6661232e565b5b6000612a758782880161257b565b9450506020612a868782880161257b565b9350506040612a97878288016124c6565b925050606085013567ffffffffffffffff811115612ab857612ab7612333565b5b612ac487828801612a1f565b91505092959194509250565b60008060408385031215612ae757612ae661232e565b5b6000612af58582860161257b565b9250506020612b068582860161257b565b9150509250929050565b7f4e487b7100000000000000000000000000000000000000000000000000000000600052602260045260246000fd5b60006002820490506001821680612b5757607f821691505b602082108103612b6a57612b69612b10565b5b50919050565b6000606082019050612b85600083018661253a565b612b9260208301856125d0565b612b9f604083018461253a565b949350505050565b7f55736572206e6f74206c6f6767656420696e206f72207265676973746572656460008201527f2e00000000000000000000000000000000000000000000000000000000000000602082015250565b6000612c036021836123fe565b9150612c0e82612ba7565b604082019050919050565b60006020820190508181036000830152612c3281612bf6565b9050919050565b7f50726f6475637420616c72656164792068617320616e204e46542e0000000000600082015250565b6000612c6f601b836123fe565b9150612c7a82612c39565b602082019050919050565b60006020820190508181036000830152612c9e81612c62565b9050919050565b7f496e73756666696369656e74207061796d656e7420666f72206d696e74696e6760008201527f204e46542e000000000000000000000000000000000000000000000000000000602082015250565b6000612d016025836123fe565b9150612d0c82612ca5565b604082019050919050565b60006020820190508181036000830152612d3081612cf4565b9050919050565b60008190508160005260206000209050919050565b60006020601f8301049050919050565b600082821b905092915050565b600060088302612d997fffffffffffffffffffffffffffffffffffffffffffffffffffffffffffffffff82612d5c565b612da38683612d5c565b95508019841693508086168417925050509392505050565b6000819050919050565b6000612de0612ddb612dd6846124a5565b612dbb565b6124a5565b9050919050565b6000819050919050565b612dfa83612dc5565b612e0e612e0682612de7565b848454612d69565b825550505050565b600090565b612e23612e16565b612e2e818484612df1565b505050565b5b81811015612e5257612e47600082612e1b565b600181019050612e34565b5050565b601f821115612e9757612e6881612d37565b612e7184612d4c565b81016020851015612e80578190505b612e94612e8c85612d4c565b830182612e33565b50505b505050565b600082821c905092915050565b6000612eba60001984600802612e9c565b1980831691505092915050565b6000612ed38383612ea9565b9150826002028217905092915050565b612eec826123f3565b67ffffffffffffffff811115612f0557612f04612657565b5b612f0f8254612b3f565b612f1a828285612e56565b600060209050601f831160018114612f4d5760008415612f3b578287015190505b612f458582612ec7565b865550612fad565b601f198416612f5b86612d37565b60005b82811015612f8357848901518255600182019150602085019450602081019050612f5e565b86831015612fa05784890151612f9c601f891682612ea9565b8355505b6001600288020188555050505b505050505050565b6000604082019050612fca60008301856125d0565b8181036020830152612fdc818461244a565b90509392505050565b7f4e487b7100000000000000000000000000000000000000000000000000000000600052601160045260246000fd5b600061301f826124a5565b91507fffffffffffffffffffffffffffffffffffffffffffffffffffffffffffffffff820361305157613050612fe5565b5b600182019050919050565b7f5573657220616c7265616479206c6f6767656420696e206f722072656769737460008201527f657265642e000000000000000000000000000000000000000000000000000000602082015250565b60006130b86025836123fe565b91506130c38261305c565b604082019050919050565b600060208201905081810360008301526130e7816130ab565b9050919050565b600081905092915050565b7f697066733a2f2f00000000000000000000000000000000000000000000000000600082015250565b600061312f6007836130ee565b915061313a826130f9565b600782019050919050565b6000815461315281612b3f565b61315c81866130ee565b94506001821660008114613177576001811461318c576131bf565b60ff19831686528115158202860193506131bf565b61319585612d37565b60005b838110156131b757815481890152600182019150602081019050613198565b838801955050505b50505092915050565b60006131d382613122565b91506131df8284613145565b915081905092915050565b600081519050919050565b600082825260208201905092915050565b6000613211826131ea565b61321b81856131f5565b935061322b81856020860161240f565b61323481612439565b840191505092915050565b6000608082019050613254600083018761253a565b613261602083018661253a565b61326e60408301856125d0565b81810360608301526132808184613206565b905095945050505050565b60008151905061329a81612364565b92915050565b6000602082840312156132b6576132b561232e565b5b60006132c48482850161328b565b91505092915050565b60006040820190506132e2600083018561253a565b6132ef60208301846125d0565b939250505056fea2646970667358221220e377601b1677e503fd63e7fb7986146558461d7f41213a0f84c0604943653cbc64736f6c63430008140033",
  "linkReferences": {},
  "deployedLinkReferences": {}
}